:100000000C9434000C94CF000C9451000C945100CB
:100010000C9451000C9451000C9451000C9451001C
:100020000C9451000C9451000C9451000C9451000C
:100030000C9451000C9488030C9451000C945100C2
:100040000C9451000C9451000C941C040C9451001D
:100050000C9451000C9474000C9451000C945100B9
:100060000C9451000C94510011241FBECFEFD8E026
:10007000DEBFCDBF11E0A0E0B1E0E0E0FEE002C0F5
:1000800005900D92A437B107D9F722E0A4E7B1E0BB
:1000900001C01D92A537B207E1F70E944C050C94F0
:1000A000FE060C940000ECE7F0E080818064808321
:1000B000EAE7F0E080818F688083EEE7F0E08081FE
:1000C0008F6380830895863070F493B7926093BFF6
:1000D00090917C00892B80937C0080917A008064D1
:1000E00080937A00789408951F920F920FB60F9222
:1000F00011242F933F934F935F936F937F938F932D
:100100009F93AF93BF93EF93FF9383B78D7F83BF8D
:10011000809178002091790090E0922B9093750166
:100120008093740183E00E945303FF91EF91BF918C
:10013000AF919F918F917F916F915F914F913F917F
:100140002F910F900FBE0F901F901895CF93DF93B4
:10015000CDB7DEB72B970FB6F894DEBF0FBECDBF7D
:100160008B8123E231E03A832983807E84608B8314
:1001700080917401909175019C838091740190919C
:1001800075018D83CE0101960E944D012B960FB60D
:10019000F894DEBF0FBECDBFDF91CF9108951F92BF
:1001A0000F920FB60F9211242F933F934F935F93AB
:1001B0006F937F938F939F93AF93BF93EF93FF932F
:1001C00089B18091DB012BE0829FC0011124845210
:1001D0009E4F0E94F6018091DB018F5F8093DB01CF
:1001E00082E00E945303FF91EF91BF91AF919F91E5
:1001F0008F917F916F915F914F913F912F910F90D0
:100200000FBE0F901F901895FF920F931F93CF93DF
:10021000DF93CDB7DEB72D970FB6F894DEBF0FBED4
:10022000CDBFF8948BE0F82E0091000110910101F0
:100230008091DB01882321F18091DB018150809343
:10024000DB01E091DB01FE9EF0011124E452FE4F40
:10025000DE0111968F2D01900D928A95E1F789812B
:100260009A818115914021F78C811D870C878C879D
:10027000CE010C960E9430058091DB018111DCCF0C
:1002800078942D960FB6F894DEBF0FBECDBFDF91E8
:10029000CF911F910F91FF900895CF93DF93EC01C1
:1002A00040E060EE8FE00E946601CE01DF91CF91C9
:1002B0000C949002F89453985B9AE9E6F0E09081F0
:1002C0009C609083E89A78940C947E011F93CF935E
:1002D000DF93182FD62FC42F2A9885E00E9482031F
:1002E000812F0E9482038D2F0E9482038C2F0E94F7
:1002F00082032A9ADF91CF911F910895CF93C82F3F
:100300002A9A229A2D982B982C98259A239A2498E9
:1003100052985A9A0E947C032A9880EC0E94820389
:100320002A9A8FE39CE90197F1F700C000002A9810
:1003300082E00E94820388E20E94820382E00E949F
:10034000820380E90E9482038C2F0E94820383E053
:100350000E9482032A9A2A9883E00E9482038AE2FA
:100360000E9482038FEF0E9482032A9AC81721F00D
:10037000289A80E0CF9108952A9882E00E94820313
:100380008CE00E94820380E00E9482032A9A2A98CD
:1003900082E00E9482038DE00E94820380E00E943E
:1003A00082032A9A2A9882E00E94820380E60E94B1
:1003B000820380E60E9482032A9A2A9882E00E94A1
:1003C000820380E70E94820380E60E9482032A9AC9
:1003D0002A9882E00E9482038FE00E94820380E0DC
:1003E0000E9482032A9A81E0CF910895CF92DF92F2
:1003F000EF92FF920F931F93CF93DF931F92CDB78E
:10040000DEB76C012A9880EB0E9482038FEF0E9476
:1004100082032A9A898389812A9886FF1FC085E0F2
:100420000E9482038CE20E94820381E00E94820388
:1004300080E00E9482032A9A9981892F807496FD18
:100440001FC0998197FD1EC00F90DF91CF911F9122
:100450000F91FF90EF90DF90CF90089585E00E947C
:1004600082038CE20E94820382E00E94820380E089
:100470000E9482032A9A9981892F807496FFE1CF86
:1004800080E901C084E92A980E9482038FEF0E94CC
:10049000820328E0829FC0011124F60191838083AA
:1004A0008FEF0E948203282F229526952770F60150
:1004B00080819181822B918380838FEF0E948203C0
:1004C0008FEF0E9482038FEF0E9482038F70282F8C
:1004D000220FF6019281917E922B9283298123FB38
:1004E000222720F920FB90F992838823A1F086012E
:1004F0000D5F1F4F8150E82EF12CF4E0EF0EF11C40
:10050000EC0CFD1C8FEF0E948203F80181938F0198
:10051000EE15FF05B9F72A9A898187708F5F94CF0E
:10052000BF92CF92DF92EF92FF920F931F93CF93E0
:10053000DF931F92CDB7DEB76C012A9880EA0E9444
:1005400082038FEF0E9482032A9A8983898182FF26
:100550006BC0898184FF47C0898186FD68C084E4BF
:1005600044E0B42E2A980E948203F6018081918192
:100570009695879596958795969587950E9482037F
:10058000F60180818295880F807E0E94820380E040
:100590000E94820380E00E948203F6018281F82E8D
:1005A000F694FF2DFF70FF2E80FF25C08F2F8064F3
:1005B0000E9482032A9AF5E0FA95F1F700002A9842
:1005C000BB20A9F08B2D80680E9482032A9A8B2D74
:1005D0000F90DF91CF911F910F91FF90EF90DF90DF
:1005E000CF90BF90089582E432E0B32EBBCF81E874
:1005F000BB24B394E9CF8F2F0E948203FF20D1F256
:1006000086010D5F1F4FFA94EF2CF12C84E0E80E69
:10061000F11CEC0CFD1CF80181918F010E948203FA
:100620000E151F05C1F7C6CF80E4B12C9BCF80E02B
:10063000CFCF60E072EC81E090E00E94E7030E947F
:100640007C030E9453000E94AD030E94DB0381E003
:100650000E945A01811109C086E191E00E94300593
:10066000789486E291E00C94300586E091E00E9457
:100670003005789486E291E00C94300583E6E8E753
:10068000F1E0A7E7B1E001900D928A95E1F71092B1
:10069000DA0180917601882329F0809176018150DA
:1006A00080937601089590917601943660F4E091FC
:1006B0007601F0E0E958FE4F8083809176018F5FEC
:1006C000809376010895F89487E391E00E943005C5
:1006D00084E6E7E7F1E0DF011D928A95E9F71092E1
:1006E0007601BFEF23ED80E3B15020408040E1F779
:1006F00000C000007894089584B1886284B981E5CF
:100700008CBD08958EBD0DB407FEFDCF8EB5089546
:100710001F920F920FB60F9211242F933F934F9376
:100720005F936F937F938F939F93AF93BF93EF9359
:10073000FF9384E00E945303FF91EF91BF91AF912B
:100740009F918F917F916F915F914F913F912F91E9
:100750000F900FBE0F901F90189584E491E00E94B7
:100760003005F894A0E8B0E01C92E1E8F0E01082D7
:100770008C9182608C9380818C61808382E19AE786
:100780009093870080938600EFE6F0E0808181609F
:10079000808378940895E0E8F0E08081826080832F
:1007A000E1E8F0E080818C61808308951092800000
:1007B000109281000895F894E0E6F0E0808188616D
:1007C00080838DE0808378940895A89508959B0197
:1007D000AC0160E874E88EE190E00E947A05215057
:1007E00031093093C5002093C40082E08093C0009B
:1007F0008091C10088698093C1008091C2008660A9
:100800008093C200E4E5F1E095E58091C00085FFAA
:10081000FCCF9093C60091919111F7CFE3E0F1E006
:100820009DE08091C00085FFFCCF9093C600919120
:100830009111F7CF789408951F920F920FB60F92EF
:1008400011242F933F934F935F936F937F938F93D5
:100850009F93AF93BF93EF93FF93E0914A02F0E031
:100860008091C600E55BFD4F808380914A028F5FD7
:1008700080934A02E0914A02F0E0E65BFD4F8081FE
:100880008D3089F0FF91EF91BF91AF919F918F9142
:100890007F916F915F914F913F912F910F900FBE7C
:1008A0000F901F90189581E00E945303EBCF1F9388
:1008B000CF93DF93CDB7DEB72B970FB6F894DEBF9B
:1008C0000FBECDBFF8948B818E7F8B83E4E6F1E081
:1008D00092E58091C00085FFFCCF9093C600919176
:1008E0009111F7CF90914B02992359F0ECE4F2E08B
:1008F0008091C00085FFFCCF9093C600919191112B
:10090000F7CFE3E0F1E0DF019DE08091C00085FFDB
:10091000FCCF9093C6009D919111F7CF9DE08091FF
:10092000C00085FFFCCF9093C60091919111F7CF45
:1009300040E150E060E070E08BE492E00E949C05B2
:100940009B017A836983211580E1380708F04BC049
:100950002F3F310509F008F470C02DE030E016E0BB
:10096000E6E0F0E080914A0290E0281739070CF4A5
:1009700046C0DE01149688E0FD0111928A95E9F7E0
:1009800020914A02211B80E0E82FE10FF0E0E55BB7
:10099000FD4F90819D3009F459C09081FD01E80F11
:1009A000F11D90838F5F281778F78F70880F9B81D8
:1009B000917E892B8B83CE0101960E944D0110926E
:1009C0004A0288E2EBE4F2E0DF011D928A95E9F742
:1009D00078942B960FB6F894DEBF0FBECDBFDF9193
:1009E000CF911F9108952EE030E017E0E7E0F0E0AE
:1009F00080914A0290E0281739070CF0BACFE55BE6
:100A0000FD4F88E0DE01149601900D928A95E1F782
:100A10008B81817E80618B83CE0101960E944D0186
:100A2000185FE12FF0E080914A029F01295F3F4F5C
:100A300090E0281739071CF39CCF2031310550F086
:100A40002CE030E015E0E5E0F0E0D2CF882309F4B7
:100A5000B6CFABCF2BE030E014E0E4E0F0E0C8CF5D
:100A6000FC012081222359F0FC0131969091C000B5
:100A700095FFFCCF2093C60021912111F7CFE3E031
:100A8000F1E09DE08091C00085FFFCCF9093C6000F
:100A900091919111F7CF08950E9419030E94E503E7
:100AA000809177018230A9F08330C0F08330E9F083
:100AB0008430A1F70E94D60380E00E9463000E9468
:100AC0003E030E94CB030E94E503809177018230B0
:100AD00059F70E9404010E943E03E0CF8130F1F6F5
:100AE0000E9457040E943E03D9CF0E94A6000E9494
:100AF0003E03D4CFA1E21A2EAA1BBB1BFD010DC0E1
:100B0000AA1FBB1FEE1FFF1FA217B307E407F507BD
:100B100020F0A21BB30BE40BF50B661F771F881F99
:100B2000991F1A9469F760957095809590959B012F
:100B3000AC01BD01CF010895A0E0B0E0E2EAF5E02C
:100B40000C94B9065C016B017A016115710519F00D
:100B5000FB0191838083E114F10429F0C70102971E
:100B6000839708F0C9C0E5012196F5011081812F16
:100B700090E00E949106892B11F05E01F4CF1D32A6
:100B800029F42196F501118101E007C01B3221F4FF
:100B9000E5012296F501118100E0E114F104B1F0C4
:100BA000F0E1EF16F10429F4B0C010E3E114F10410
:100BB00001F12AE0E216F104B1F180E1E816F10456
:100BC00071F0E8E0EE16F104F1F413C0103341F5D2
:100BD00088818F7D883549F7198122960260F0E17E
:100BE000EF2EF12C88248A94982CA82CAFE0BA2EF2
:100BF00020C078E0E72EF12C88248A94982CA82C29
:100C0000EFE1BE2E16C06FEF7FEFCB0197010F2CE7
:100C1000000C440B550B0E947A0549015A0109C08A
:100C20008AE0E82EF12C69E9862E982CA82C69E13F
:100C3000B62E40E060E070E0CB0127010F2C000CE5
:100C400066087708FE0150ED352E310E29E0231598
:100C500070F42FEB210F2A3118F439EC332E06C033
:100C60002FE9210F2A3130F529EA322E310E232DBA
:100C700030E02E153F05F4F44F3FC9F08616970675
:100C8000A806B90688F0A30192010E949D06232DB3
:100C900030E040E050E0620F731F841F951F621721
:100CA00073078407950710F44FEF01C041E02196C8
:100CB0001081C8CFC114D10451F0442311F0219701
:100CC00003C001FF04C02297F601D183C08300FF57
:100CD00007C090958095709561957F4F8F4F9F4F7E
:100CE0004F3F79F482E290E0909374028093730214
:100CF0003FEF2FEF9FEF0DC040E030E020E090E0AD
:100D000008C0462F372F282F04C0103309F067CFB3
:100D10005FCF642F732F822FCDB7DEB7E1E10C9444
:100D2000D50691110C949A06803219F0895085509D
:100D3000C8F70895992788270895DB018F939F931B
:100D40000E94AD06BF91AF91A29F800D911DA39F00
:100D5000900DB29F900D112408950E94EF06A59F5B
:100D6000900DB49F900DA49F800D911D11240895A6
:100D70002F923F924F925F926F927F928F929F92AB
:100D8000AF92BF92CF92DF92EF92FF920F931F9399
:100D9000CF93DF93CDB7DEB7CA1BDB0B0FB6F8944A
:100DA000DEBF0FBECDBF09942A88398848885F848A
:100DB0006E847D848C849B84AA84B984C884DF80FB
:100DC000EE80FD800C811B81AA81B981CE0FD11DDF
:100DD0000FB6F894DEBF0FBECDBFED010895A29F00
:100DE000B001B39FC001A39F700D811D1124911DFF
:100DF000B29F700D811D1124911D0895F894FFCFAD
:100E000000000D0A000043414E20696E6974207392
:100E100075636365730043414E20696E6974206693
:100E200061696C65640053797374656D20696E69DE
:100E30007420646F6E650051756575652066756C0C
:100E40006C2121005374617274696E672074696D3E
:100E5000657200555341525420494E495420444F25
:100E60004E4500526563656976656420646174610E
:040E70003A20000024
:00000001FF
