:100000000C9434000C9449000C9449000C94490061
:100010000C9449000C9449000C9449000C9449003C
:100020000C9449000C9449000C9449000C9449002C
:100030000C9449000C9449000C9449000C9449001C
:100040000C9449000C9449000C9449000C9449000C
:100050000C9449000C9449000C9449000C944900FC
:100060000C9449000C94490011241FBECFEFD8E036
:10007000DEBFCDBF11E0A0E0B1E0E4E7F4E002C0F4
:1000800005900D92AE35B107D9F70E94B2010C94DC
:1000900038020C9400000E948F000895CF93DF93E4
:1000A000D82FC62F2A9882E00E9468018D2F0E94C7
:1000B00068018C2F0E9468012A9ADF91CF910895E0
:1000C000CF93C82F2A9883E00E9468018C2F0E944A
:1000D00068018FEF0E9468012A9ACF9108951F93BB
:1000E000CF93DF93182FD62FC42F2A9885E00E9434
:1000F0006801812F0E9468018D2F0E9468018C2F5A
:100100000E9468012A9ADF91CF911F9108952A9841
:100110000E9468018FEF0E9468012A9A0895CF9388
:10012000C82F2A9A229A2D982B982C98259A239A90
:10013000249852985A9A0E9462012A9880EC0E9450
:1001400068012A9A83EC99E00197F1F700C000005A
:100150002A9882E00E94680188E20E94680182E099
:100160000E94680180E90E9468018C2F0E9468014A
:1001700083E00E9468012A9A8AE20E946000C81700
:1001800019F0289A80E015C060E08CE00E944E00D3
:1001900060E08DE00E944E0060E680E60E944E0026
:1001A00060E680E70E944E0060E08FE00E944E0013
:1001B00081E0CF91089589B182FB882780F991E091
:1001C00089270895CF92DF92EF92FF920F931F93AA
:1001D000CF93DF931F92CDB7DEB76C0180EB0E9407
:1001E000870089839981892F807496FD06C0998143
:1001F00099230CF05DC084E901C080E92A980E942F
:1002000068018FEF0E94680128E0829FC0011124DD
:10021000F601918380838FEF0E946801282F229539
:1002200026952770F60180819181822B91838083AE
:100230008FEF0E9468018FEF0E9468018FEF0E948C
:1002400068018F70282F220FF6019281917E922BE8
:100250009283298123FB222720F920FB90F99283A6
:100260008823A1F086010D5F1F4F8150E82EF12CED
:10027000F4E0EF0EF11CEC0CFD1C8FEF0E94680106
:10028000F80181938F01EE15FF05B9F72A9A89814C
:1002900086FF06C040E061E08CE20E946F0005C06E
:1002A00040E062E08CE20E946F00898187708F5F7E
:1002B0000F90DF91CF911F910F91FF90EF90DF9002
:1002C000CF90089584B1886284B981E58CBD08958A
:1002D0008EBD0DB407FEFDCF8EB50895DC01E0ECB8
:1002E000F0E0908195FFFDCF8C918093C60008953A
:1002F000CF93DF93EC018881882339F0CE010E94EF
:100300006E01219688818111F9CFDF91CF910895F7
:1003100080E091E00E94780108950E9478010E9497
:10032000880108959B01AC0160E874E88EE190E0DB
:100330000E941602215031093093C5002093C40059
:1003400082E08093C000E1ECF0E0808188618083EE
:10035000E2ECF0E080818660808384E091E00E949E
:100360008D010895CF93DF93CDB7DEB72B970FB6EE
:10037000F894DEBF0FBECDBF60E076E980E090E08C
:100380000E94920181E00E944B00882329F088E1BD
:1003900091E00E948D0104C088E291E00E948D01ED
:1003A00088E391E00E948D010E94DB008823E1F345
:1003B000CE0101960E94E2008823B1F38EE491E021
:1003C0000E948D0189819A810E948D0183E591E0CF
:1003D0000E948D0186E591E00E948D018B818695BA
:1003E0008F7090E00E948D018B8186958F70C9F08F
:1003F0007E0184E0E80EF11C00E010E0F70181913D
:100400007F0190E00E948D0184E591E00E948D01C2
:100410000F5F1F4F8B8186958F7090E0081719072B
:100420006CF385E591E00E948D01BECFA1E21A2E0A
:10043000AA1BBB1BFD010DC0AA1FBB1FEE1FFF1F88
:10044000A217B307E407F50720F0A21BB30BE40BD8
:10045000F50B661F771F881F991F1A9469F760951F
:100460007095809590959B01AC01BD01CF010895D9
:04047000F894FFCF2E
:100474000D0A0000555341525420494E495420441A
:100484004F4E450024003B0043414E20696E697481
:10049400207375636365730043414E20696E69740C
:1004A400206661696C6564005374617274696E6777
:1004B400206D61696E206C6F6F702E2E2E00494482
:0E04C4003A20002C2000446174613A200000B0
:00000001FF
