S0160000555242494E4E5F41524455494E4F2E73726563CF
S11300000C9434000C94EF000C9451000C945100A7
S11300100C9451000C9451000C9451000C94510018
S11300200C9451000C9451000C9451000C94510008
S11300300C9451000C9451000C9451000C945100F8
S11300400C9451000C9451000C94CC020C9451006B
S11300500C9451000C9451000C9451000C945100D8
S11300600C9451000C94510011241FBECFEFD8E022
S1130070DEBFCDBF11E0A0E0B1E0ECE6FDE002C0E0
S113008005900D92A237B107D9F721E0A2E7B1E0BC
S113009001C01D92AB39B207E1F70E9434030C94FE
S11300A0B4060C9400009F92AF92BF92CF92DF925D
S11300B0EF92FF920F931F93CF93DF93CDB7DEB7E9
S11300C02F970FB6F894DEBF0FBECDBFCE010196B9
S11300D00E94C001882309F46FC084E091E00E946B
S11300E0F9028A818F9389818F930F2EF9E0EF2E85
S11300F0F1E0FF2EF02DFF92EF921F9284E08F9398
S11301008E01045F1F4F1F930F930E94BC03C8010D
S11301100E94F9028FE091E00E94F90282E191E0ED
S11301200E94F9028A818F9389818F93FF92EF92C3
S11301301F9282E08F931F930F930E94BC03C80108
S11301400E94F9028FE191E00E94F9028B81869569
S11301508F700FB6F894DEBF0FBECDBF49F16E01AC
S113016034E0C30ED11CA12CB12C0F2EF3E09F2E32
S1130170F02DF60181916F011F928F93FF92EF9200
S11301801F929F921F930F930E94BC03C8010E9469
S1130190F902FFEFAF1ABF0A8B8186958F7090E04A
S11301A00FB6F894DEBF0FBECDBFA816B9060CF388
S11301B081E191E00E940E0380E02F960FB6F8943F
S11301C0DEBF0FBECDBFDF91CF911F910F91FF9086
S11301D0EF90DF90CF90BF90AF909F9008951F92C3
S11301E00F920FB60F9211242F933F934F935F9367
S11301F06F937F938F939F93AF93BF93EF93FF93EB
S11302000E945300FF91EF91BF91AF919F918F9105
S11302107F916F915F914F913F912F910F900FBEFE
S11302200F901F901895CF93DF93EC0140E060EEA0
S11302308FE00E945401CE010E94400291E081119E
S113024001C090E0892FDF91CF910895F8945398DD
S11302505B9AE9E6F0E090819C609083E89A789458
S11302600E9474010895CF93DF93D82FC62F2A9844
S113027082E00E94C6028D2F0E94C6028C2F0E942B
S1130280C6022A9ADF91CF910895CF93C82F2A9856
S113029083E00E94C6028C2F0E94C6028FEF0E9448
S11302A0C6022A9ACF9108951F93CF93DF93182FF4
S11302B0D62FC42F2A9885E00E94C602812F0E945F
S11302C0C6028D2F0E94C6028C2F0E94C6022A9A53
S11302D0DF91CF911F9108952A980E94C6028FEF53
S11302E00E94C6022A9A0895CF93C82F2A9A229A66
S11302F02D982B982C98259A239A249852985A9A98
S11303000E94C0022A9880EC0E94C6022A9A83ECBA
S113031099E00197F1F700C000002A9882E00E945A
S1130320C60288E20E94C60282E00E94C60280E9F8
S11303300E94C6028C2F0E94C60283E00E94C6025D
S11303402A9A8AE20E944501C81719F0289A80E087
S113035015C060E08CE00E94330160E08DE00E94F3
S1130360330160E680E60E94330160E680E70E9484
S1130370330160E08FE00E94330181E0CF91089562
S1130380CF92DF92EF92FF920F931F93CF93DF935D
S11303901F92CDB7DEB76C0180EB0E946C0189839C
S11303A09981892F807496FD06C0998199230CF058
S11303B05DC084E901C080E92A980E94C6028FEFDB
S11303C00E94C60228E0829FC0011124F601918395
S11303D080838FEF0E94C602282F229526952770CE
S11303E0F60180819181822B918380838FEF0E941B
S11303F0C6028FEF0E94C6028FEF0E94C6028F7062
S1130400282F220FF6019281917E922B92832981CB
S113041023FB222720F920FB90F992838823A1F063
S113042086010D5F1F4F8150E82EF12CF4E0EF0E92
S1130430F11CEC0CFD1C8FEF0E94C602F8018193A5
S11304408F01EE15FF05B9F72A9A898186FF06C048
S113045040E061E08CE20E94540105C040E062E0AB
S11304608CE20E945401898187708F5F0F90DF9125
S1130470CF911F910F91FF90EF90DF90CF9008954F
S1130480BF92CF92DF92EF92FF920F931F93CF937D
S1130490DF931F92CDB7DEB76C0180EA0E946C0136
S11304A08983898182FF0AC0898184FF09C0898187
S11304B086FD5AC06894BB24B2F805C0B12C03C0B1
S11304C06894BB24B1F82A988B2D80640E94C602DC
S11304D0F601808191819695879596958795969555
S11304E087950E94C602F60180818295880F807EDE
S11304F00E94C60280E00E94C60280E00E94C602FA
S1130500F6018281F82EF694FF2DFF70FF2E80FFF6
S113051005C08F2F80640E94C60218C08F2F0E94CE
S1130520C602FF2099F086010D5F1F4FFA94EF2C4D
S1130530F12C84E0E80EF11CEC0CFD1CF801819117
S11305408F010E94C6020E151F05C1F72A9A0000EA
S11305502A98B11002C0BB24B3948B2D80680E94EA
S1130560C6022A9A8B2D01C080E00F90DF91CF91B3
S11305701F910F91FF90EF90DF90CF90BF9008955F
S113058084B1886284B981E58CBD08958EBD0DB4B3
S113059007FEFDCF8EB508951F920F920FB60F92EE
S11305A011248F93EF93FF93E0917201F0E0809117
S11305B0C600ED58FE4F808380917201893210F09D
S11305C010927201809172018F5F80937201FF918A
S11305D0EF918F910F900FBE0F901F901895DC0133
S11305E0E0ECF0E0908195FFFDCF8C918093C60004
S11305F00895CF93DF93EC018881882339F0CE01ED
S11306000E94EF02219688818111F9CFDF91CF9169
S1130610089580E091E00E94F90208950E94F90291
S11306200E94090308959B01AC0160E874E88EE11F
S113063090E00E949A03215031093093C500209321
S1130640C40082E08093C000E1ECF0E0808188691E
S11306508083E2ECF0E080818660808388E291E030
S11306600E940E0378940895CF92DF92EF92FF9246
S11306700F931F93CF93DF93CDB7DEB72B970FB6AE
S1130680F894DEBF0FBECDBF60E076E980E090E075
S11306900E9413030E94C00281E00E942601882365
S11306A0A1F18CE391E00E940E038CE491E00E949E
S11306B00E030F2EF1E3CF2EF6E0DF2EF02D10E423
S11306C00F2EF5E0EF2EF02D0F2EF0E3FF2EF02D80
S11306D00FEFDA82C9828B81807E80618B831C83D9
S11306E0ED82FE820F83188619871A861B86CE0137
S11306F001960E9413012FEF81EE94E02150804077
S11307009040E1F700C00000E4CF82E691E00E944F
S11307100E0381E090E02B960FB6F894DEBF0FBE77
S1130720CDBFDF91CF911F910F91FF90EF90DF909C
S1130730CF900895A1E21A2EAA1BBB1BFD010DC088
S1130740AA1FBB1FEE1FFF1FA217B307E407F5077D
S113075020F0A21BB30BE40BF50B661F771F881F59
S1130760991F1A9469F760957095809590959B01EF
S1130770AC01BD01CF010895AEE0B0E0E2ECF3E0DE
S11307800C948B060D891E898F89988D26E02C8305
S11307901A83098397FF02C080E090E801979E8343
S11307A08D83AE01455E5F4F698D7A8DCE010196D2
S11307B00E94EC034D815E8157FD0AC02F8138856C
S11307C0421753070CF49A01F801E20FF31F108249
S11307D02E96E4E00C94A706ABE0B0E0E2EFF3E081
S11307E00C947D066C017B018A01FC011782168240
S11307F0838181FFCCC1CE0101963C01F601938136
S1130800F70193FD859193FF81917F01882309F47A
S1130810BAC1853239F493FD859193FF81917F01AB
S1130820853229F4B60190E00E94E305E7CF912CCC
S1130830212C312CFFE1F315D8F08B3279F038F408
S1130840803279F08332A1F4232D20611DC08D32D2
S113085061F0803369F4232D216016C0832D8260FA
S1130860382EE32DE4603E2E2AC0F32DF8601DC01F
S113087037FC2DC020ED280F2A3040F08E32B9F419
S113088036FC81C1232D2064322E19C036FE06C0E9
S11308908AE0989E200D1124922E11C0EAE02E9E2B
S11308A0200D1124222EF32DF0623F2E08C08C3629
S11308B021F4832D8068382E02C0883641F4F70174
S11308C093FD859193FF81917F018111B3CF982F7F
S11308D09F7D9554933028F40C5F1F4F9FE39983B9
S11308E00DC0833631F0833771F0833509F059C078
S11308F021C0F801808189830E5F1F4F882483946F
S1130900912C530113C02801F2E04F0E511CF80141
S1130910A080B18036FE03C0692D70E002C06FEF85
S11309207FEFC5010E94D8054C018201F32DFF77AA
S11309303F2E16C0280122E0420E511CF801A0806F
S1130940B18036FE03C0692D70E002C06FEF7FEF07
S1130950C5010E94CD054C01F32DF0683F2E8201A4
S113096033FC1BC0822D90E088169906B0F4B601C2
S113097080E290E00E94E3052A94F4CFF50137FC6D
S1130980859137FE81915F01B60190E00E94E305F5
S113099021102A9421E0821A91088114910471F79C
S11309A0E8C0843611F0893641F5F80137FE07C0F6
S11309B060817181828193810C5F1F4F08C06081C7
S11309C07181072E000C880B990B0E5F1F4FF32DBE
S11309D0FF763F2E97FF09C090958095709561959D
S11309E07F4F8F4F9F4FF0683F2E2AE030E0A301E6
S11309F00E941F06882E861845C0853731F4232DA2
S1130A002F7EB22E2AE030E025C0932D997FB92E97
S1130A108F36C1F018F4883579F0B5C0803719F0F5
S1130A20883721F0B0C0E92FE061BE2EB4FE0DC0BE
S1130A30FB2DF460BF2E09C034FE0AC0292F2660A6
S1130A40B22E06C028E030E005C020E130E002C04C
S1130A5020E132E0F801B7FE07C060817181828134
S1130A6093810C5F1F4F06C06081718180E090E02C
S1130A700E5F1F4FA3010E941F06882E8618FB2DB0
S1130A80FF773F2E36FE0DC0232D2E7FA22E891414
S1130A9058F434FE0BC032FC09C0832D8E7EA82E80
S1130AA005C0B82CA32C03C0B82C01C0B92CA4FEDB
S1130AB00FC0FE01E80DF11D8081803321F49A2DD1
S1130AC0997EA92E09C0A2FE06C0B394B39404C0B3
S1130AD08A2D867809F0B394A3FC11C0A0FE06C049
S1130AE0B21488F4280C922C9B180EC0B21460F433
S1130AF0B60180E290E00E94E305B394F7CFB2140C
S1130B0018F42B1802C0982C212CA4FE10C0B60196
S1130B1080E390E00E94E305A2FE17C0A1FC03C09D
S1130B2088E790E002C088E590E0B6010CC08A2D09
S1130B30867859F0A1FE02C08BE201C080E2A7FCD6
S1130B408DE2B60190E00E94E305891438F4B60101
S1130B5080E390E00E94E3059A94F7CF8A94F3012E
S1130B60E80DF11D8081B60190E00E94E30581103B
S1130B70F5CF222009F442CEB60180E290E00E9433
S1130B80E3052A94F6CFF6018681978102C08FEFA0
S1130B909FEF2B96E2E10C949906FC0105906150BD
S1130BA070400110D8F7809590958E0F9F1F08957F
S1130BB0FC016150704001900110D8F78095909528
S1130BC08E0F9F1F08950F931F93CF93DF93FB0105
S1130BD0238121FD03C08FEF9FEF2CC022FF16C09D
S1130BE046815781248135814217530744F4A081FB
S1130BF0B1819D012F5F3F4F318320838C932681E8
S1130C0037812F5F3F4F3783268314C08B01EC015C
S1130C10FB010084F185E02D0995892BE1F6D801CB
S1130C2016968D919C911797019617969C938E9387
S1130C301697CE01DF91CF911F910F910895FA017C
S1130C40AA27283051F1203181F1E8946F936E7F07
S1130C506E5F7F4F8F4F9F4FAF4FB1E03ED0B4E0F8
S1130C603CD0670F781F891F9A1FA11D680F791F39
S1130C708A1F911DA11D6A0F711D811D911DA11D4A
S1130C8020D009F468943F912AE0269F112430195A
S1130C90305D3193DEF6CF010895462F4770405DF5
S1130CA04193B3E00FD0C9F7F6CF462F4F70405DA4
S1130CB04A3318F0495D31FD4052419302D0A9F7FF
S1130CC0EACFB4E0A6959795879577956795BA95F9
S1130CD0C9F700976105710508959B01AC010A2EBF
S1130CE006945795479537952795BA95C9F7620F96
S1130CF0731F841F951FA01D08952F923F924F923A
S1130D005F926F927F928F929F92AF92BF92CF9297
S1130D10DF92EF92FF920F931F93CF93DF93CDB7A0
S1130D20DEB7CA1BDB0B0FB6F894DEBF0FBECDBF18
S1130D3009942A88398848885F846E847D848C84E9
S1130D409B84AA84B984C884DF80EE80FD800C81F2
S1130D501B81AA81B981CE0FD11D0FB6F894DEBFD5
S10F0D600FBECDBFED010895F894FFCF45
S1130D6C0D0A000049443A20002530325875002CF5
S1130D7C2000446174616C656E6774683A20002CC1
S1130D8C20446174613A2000555341525420494E19
S1130D9C495420444F4E450024003B0043414E200F
S1130DAC696E69742073756363657300537461723F
S1130DBC74696E67206D61696E206C6F6F702E2E76
S1130DCC2E0043414E20696E6974206661696C651E
S1050DDC6400AD
S9030000FC
