S0160000555242494E4E5F41524455494E4F2E73726563CF
S11300000C9461000C9476000C9476000C947600A9
S11300100C9476000C9476000C9476000C94760084
S11300200C9476000C9476000C9476000C94760074
S11300300C9476000C9476000C9476000C94760064
S11300400C9476000C9476000C9476000C94760054
S11300500C9476000C9476000C9476000C94760044
S11300600C9476000C94760008000000BE9224499B
S1130070123EABAAAA2ABECDCCCC4C3E00000080D6
S1130080BEABAAAAAA3E00000000BF000000803F49
S11300900000000000084178D3BB4387D1133D1909
S11300A00E3CC3BD4282AD2B3E68EC8276BED98F36
S11300B0E1A93E4C80EFFFBE01C4FF7F3F0000007A
S11300C0000011241FBECFEFD8E0DEBFCDBF11E08A
S11300D0A0E0B1E0E4E5F0E102C005900D92A237A2
S11300E0B107D9F70E9420020C9428080C94000050
S11300F00E94BC000895CF93DF93D82FC62F2A986F
S113010082E00E9495018D2F0E9495018C2F0E9400
S113011095012A9ADF91CF910895CF93C82F2A98F9
S113012083E00E9495018C2F0E9495018FEF0E941D
S113013095012A9ACF9108951F93CF93DF93182F97
S1130140D62FC42F2A9885E00E949501812F0E9402
S113015095018D2F0E9495018C2F0E9495012A9A5A
S1130160DF91CF911F9108952A980E9495018FEFF6
S11301700E9495012A9A0895CF93C82F2A9A229A09
S11301802D982B982C98259A239A249852985A9A09
S11301900E948F012A9880EC0E9495012A9A83EC90
S11301A099E00197F1F700C000002A9882E00E94CC
S11301B0950188E20E94950182E00E94950180E900
S11301C00E9495018C2F0E94950183E00E94950165
S11301D02A9A8AE20E948D00C81719F0289A80E0B2
S11301E015C060E08CE00E947B0060E08DE00E941E
S11301F07B0060E680E60E947B0060E680E70E9468
S11302007B0060E08FE00E947B0081E0CF91089545
S113021089B182FB882780F991E089270895CF92DC
S1130220DF92EF92FF920F931F93CF93DF931F926E
S1130230CDB7DEB76C0180EB0E94B400898399814D
S1130240892F807496FD06C0998199230CF05DC0B6
S113025084E901C080E92A980E9495018FEF0E94E9
S1130260950128E0829FC0011124F60191838083C7
S11302708FEF0E949501282F229526952770F6016D
S113028080819181822B918380838FEF0E949501DD
S11302908FEF0E9495018FEF0E9495018F70282F98
S11302A0220FF6019281917E922B9283298123FB66
S11302B0222720F920FB90F992838823A1F086015C
S11302C00D5F1F4F8150E82EF12CF4E0EF0EF11C6E
S11302D0EC0CFD1C8FEF0E949501F80181938F01B6
S11302E0EE15FF05B9F72A9A898186FF06C040E01A
S11302F061E08CE20E949C0005C040E062E08CE278
S11303000E949C00898187708F5F0F90DF91CF914D
S11303101F910F91FF90EF90DF90CF90089584B1DB
S1130320886284B981E58CBD08958EBD0DB407FE45
S1130330FDCF8EB50895DC01E0ECF0E0908195FFEF
S1130340FDCF8C918093C6000895CF93DF93EC0189
S11303508881882339F0CE010E949B0121968881EF
S11303608111F9CFDF91CF9108958F929F92AF922F
S1130370BF92EF92FF920F931F93CF93DF93CDB76A
S1130380DEB74B015C01EDB6FEB60E945F030E942E
S1130390F30320E030E040E050E40E94BB020E94FE
S11303A027032DB73EB7261B370B0FB6F8943EBF75
S11303B00FBE2DBF0DB71EB70F5F1F4F4AE0B80128
S11303C0C4010E94FB04C8010E94A5010FB6F89461
S11303D0FEBE0FBEEDBEDF91CF911F910F91FF9036
S11303E0EF90BF90AF909F908F90089580E091E040
S11303F00E94A50108950E94A5010E94F601089596
S11304009B01AC0160E874E88EE190E00E94D9049D
S1130410215031093093C5002093C40082E08093B9
S1130420C000E1ECF0E0808188618083E2ECF0E0E0
S113043080818660808384E091E00E94FB010895BE
S1130440CF93DF93CDB7DEB72F970FB6F894DEBF07
S11304500FBECDBF60E076E980E090E00E9400022C
S113046081E00E947800882329F088E191E00E94CD
S1130470FB0104C088E291E00E94FB0188E391E063
S11304800E94FB010F2EF3E5EF2EF1E0FF2EF02D7D
S11304906894882482F88E01045F1F4F0F2EF3E0C6
S11304A09F2EF02D0E9408018823E1F3CE010196CE
S11304B00E940F018823B1F38EE491E00E94A5010C
S11304C08A818F9389818F93FF92EF921F928F92EB
S11304D01F930F930E942005C8010E94A50189E57E
S11304E091E00E94A5018CE591E00E94A5016B8139
S11304F066956F7070E080E090E00E94B50189E637
S113050091E00E94A5018B8186958F700FB6F894B7
S1130510DEBF0FBECDBF49F16E0134E0C30ED11C66
S1130520A12CB12CF60181916F011F928F93FF9240
S1130530EF921F929F921F930F930E942005C80170
S11305400E94A5018AE591E00E94A501FFEFAF1A80
S1130550BF0A8B8186958F7090E00FB6F894DEBF4A
S11305600FBECDBFA816B906ECF28BE591E00E9450
S1130570FB0198CF5058BB27AA270E94D2020C94A3
S1130580B1030E94A30338F00E94AA0320F039F4B7
S11305909F3F19F426F40C94A0030EF4E095E7FBB6
S11305A00C949A03E92F0E94C20358F3BA17620706
S11305B073078407950720F079F4A6F50C94E403F7
S11305C00EF4E0950B2EBA2FA02D0B01B90190016A
S11305D00C01CA01A0011124FF27591B99F0593FAE
S11305E050F4503E68F11A16F040A22F232F342FF6
S11305F04427585FF3CF469537952795A795F04044
S11306005395C9F77EF41F16BA0B620B730B840B58
S1130610BAF09150A1F0FF0FBB1F661F771F881F10
S1130620C2F70EC0BA0F621F731F841F48F4879568
S113063077956795B795F7959E3F08F0B0CF93955A
S1130640880F08F09927EE0F9795879508950E94D3
S11306502E036894B1110C94E50308950E94CA0313
S113066088F09F5798F0B92F9927B751B0F0E1F06F
S1130670660F771F881F991F1AF0BA95C9F714C01F
S1130680B13091F00E94E403B1E008950C94E403C6
S1130690672F782F8827B85F39F0B93FCCF3869558
S11306A077956795B395D9F73EF4909580957095B5
S11306B061957F4F8F4F9F4F0895E89409C097FB32
S11306C03EF490958095709561957F4F8F4F9F4F25
S11306D09923A9F0F92F96E9BB279395F695879569
S11306E077956795B795F111F8CFFAF4BB0F11F42C
S11306F060FF1BC06F5F7F4F8F4F9F4F16C08823D3
S113070011F096E911C0772321F09EE8872F762F08
S113071005C0662371F096E8862F70E060E02AF049
S11307209A95660F771F881FDAF7880F9695879535
S113073097F9089597F99F6780E870E060E008955D
S11307409FEF80EC089500240A94161617061806E5
S11307500906089500240A941216130614060506C1
S11307600895092E0394000C11F4882352F0BB0F52
S113077040F4BF2B11F460FF04C06F5F7F4F8F4FB5
S11307809F4F089557FD9058440F551F59F05F3FF0
S113079071F04795880F97FB991F61F09F3F79F09F
S11307A087950895121613061406551FF2CF469521
S11307B0F1DF08C0161617061806991FF1CF8695A3
S11307C07105610508940895E894BB276627772787
S11307D0CB0197F9089516F00C94A4040C94A0038B
S11307E068940C949A030E94CA03A8F39923C1F352
S11307F0AEF3DF93CF931F930F93FF92C92FDD279F
S113080088232AF02197660F771F881FDAF720E0E4
S113081030E040E85FEB9FE3883920F0803E38F019
S113082021968F770E94BB02E8E6F0E004C00E94A4
S1130830BB02E5E9F0E00E94B2048B01BE01EC01C9
S1130840FB2E6F5771097595771F880B990B0E94C2
S11308505F0328E132E741E35FE30E944A04AF2DDE
S11308609801AE01FF900F911F91CF91DF910E94EB
S1130870D2020C94B1030E94A30338F00E94AA038D
S113088020F0952311F00C949A030C94A0031124E6
S11308900C94E5030E94C20370F3959FC1F3950F76
S11308A050E0551F629FF001729FBB27F00DB11DF0
S11308B0639FAA27F00DB11DAA1F649F6627B00D80
S11308C0A11D661F829F2227B00DA11D621F739F69
S11308D0B00DA11D621F839FA00D611D221F749F77
S11308E03327A00D611D231F849F600D211D822FBE
S11308F0762F6A2F11249F5750409AF0F1F08823E5
S11309004AF0EE0FFF1FBB1F661F771F881F915011
S11309105040A9F79E3F510580F00C949A030C9423
S1130920E5035F3FE4F3983ED4F3869577956795A6
S1130930B795F795E7959F5FC1F7FE2B880F911D3B
S11309409695879597F908959F3F31F0915020F43B
S1130950879577956795B795880F911D9695879597
S113096097F90895DF93CF931F930F93FF92EF921C
S1130970DF927B018C01689406C0DA2EEF010E949D
S11309804A04FE01E894A59125913591459155912C
S1130990A6F3EF010E94D202FE019701A801DA94A6
S11309A069F7DF90EF90FF900F911F91CF91DF9146
S11309B00895A1E21A2EAA1BBB1BFD010DC0AA1F9C
S11309C0BB1FEE1FFF1FA217B307E407F50720F0B4
S11309D0A21BB30BE40BF50B661F771F881F991F2F
S11309E01A9469F760957095809590959B01AC0178
S11309F0BD01CF010895BB274A3031F4992322F475
S1130A00BDE2909581959F4F0C940705BB27FB0190
S1130A105527AA27880F991FAA1FA41710F0A41BF3
S1130A2083955051B9F7A05DAA3308F0A95DA1934D
S1130A30009779F7B111B1931192CB010C94470748
S1130A40AEE0B0E0E6E2F5E00C94FF070D891E8904
S1130A508F89988D26E02C831A83098397FF02C01F
S1130A6080E090E801979E838D83AE01455E5F4FE1
S1130A70698D7A8DCE0101960E9450054D815E816B
S1130A8057FD0AC02F813885421753070CF49A0189
S1130A90F801E20FF31F10822E96E4E00C941B0879
S1130AA0ABE0B0E0E6E5F5E00C94F1076C017B0106
S1130AB08A01FC0117821682838181FFCCC1CE0199
S1130AC001963C01F6019381F70193FD859193FF13
S1130AD081917F01882309F4BAC1853239F493FDE9
S1130AE0859193FF81917F01853229F4B60190E0CD
S1130AF00E945707E7CF912C212C312CFFE1F315ED
S1130B00D8F08B3279F038F4803279F08332A1F462
S1130B10232D20611DC08D3261F0803369F4232DB3
S1130B20216016C0832D8260382EE32DE4603E2EB2
S1130B302AC0F32DF8601DC037FC2DC020ED280F0E
S1130B402A3040F08E32B9F436FC81C1232D206462
S1130B50322E19C036FE06C08AE0989E200D11245C
S1130B60922E11C0EAE02E9E200D1124222EF32D88
S1130B70F0623F2E08C08C3621F4832D8068382E15
S1130B8002C0883641F4F70193FD859193FF81916A
S1130B907F018111B3CF982F9F7D9554933028F412
S1130BA00C5F1F4F9FE399830DC0833631F0833769
S1130BB071F0833509F059C021C0F801808189831F
S1130BC00E5F1F4F88248394912C530113C0280176
S1130BD0F2E04F0E511CF801A080B18036FE03C034
S1130BE0692D70E002C06FEF7FEFC5010E943C07E2
S1130BF04C018201F32DFF773F2E16C0280122E01D
S1130C00420E511CF801A080B18036FE03C0692D4C
S1130C1070E002C06FEF7FEFC5010E9431074C0105
S1130C20F32DF0683F2E820133FC1BC0822D90E02F
S1130C3088169906B0F4B60180E290E00E94570746
S1130C402A94F4CFF50137FC859137FE81915F0139
S1130C50B60190E00E94570721102A9421E0821ADD
S1130C6091088114910471F7E8C0843611F0893633
S1130C7041F5F80137FE07C060817181828193815B
S1130C800C5F1F4F08C060817181072E000C880B18
S1130C90990B0E5F1F4FF32DFF763F2E97FF09C070
S1130CA090958095709561957F4F8F4F9F4FF06819
S1130CB03F2E2AE030E0A3010E949307882E861875
S1130CC045C0853731F4232D2F7EB22E2AE030E043
S1130CD025C0932D997FB92E8F36C1F018F488352D
S1130CE079F0B5C0803719F0883721F0B0C0E92F0A
S1130CF0E061BE2EB4FE0DC0FB2DF460BF2E09C012
S1130D0034FE0AC0292F2660B22E06C028E030E047
S1130D1005C020E130E002C020E132E0F801B7FE76
S1130D2007C060817181828193810C5F1F4F06C06F
S1130D306081718180E090E00E5F1F4FA3010E94EB
S1130D409307882E8618FB2DFF773F2E36FE0DC0A5
S1130D50232D2E7FA22E891458F434FE0BC032FCAE
S1130D6009C0832D8E7EA82E05C0B82CA32C03C0E9
S1130D70B82C01C0B92CA4FE0FC0FE01E80DF11D72
S1130D808081803321F49A2D997EA92E09C0A2FE78
S1130D9006C0B394B39404C08A2D867809F0B39442
S1130DA0A3FC11C0A0FE06C0B21488F4280C922C37
S1130DB09B180EC0B21460F4B60180E290E00E9469
S1130DC05707B394F7CFB21418F42B1802C0982C19
S1130DD0212CA4FE10C0B60180E390E00E945707C6
S1130DE0A2FE17C0A1FC03C088E790E002C088E51A
S1130DF090E0B6010CC08A2D867859F0A1FE02C09D
S1130E008BE201C080E2A7FC8DE2B60190E00E9473
S1130E105707891438F4B60180E390E00E9457071D
S1130E209A94F7CF8A94F301E80DF11D8081B601FD
S1130E3090E00E9457078110F5CF222009F442CE9A
S1130E40B60180E290E00E9457072A94F6CFF6019B
S1130E508681978102C08FEF9FEF2B96E2E10C947D
S1130E600D08FC010590615070400110D8F7809581
S1130E7090958E0F9F1F0895FC0161507040019062
S1130E800110D8F7809590958E0F9F1F0895DC016F
S1130E90FC01672F71917723E1F7329704C07C91AD
S1130EA06D9370836291AE17BF07C8F308950F93D3
S1130EB01F93CF93DF93FB01238121FD03C08FEFA9
S1130EC09FEF2CC022FF16C04681578124813581B3
S1130ED04217530744F4A081B1819D012F5F3F4F16
S1130EE0318320838C93268137812F5F3F4F378353
S1130EF0268314C08B01EC01FB010084F185E02DF5
S1130F000995892BE1F6D80116968D919C91179736
S1130F10019617969C938E931697CE01DF91CF91ED
S1130F201F910F910895FA01AA27283051F1203119
S1130F3081F1E8946F936E7F6E5F7F4F8F4F9F4F69
S1130F40AF4FB1E03ED0B4E03CD0670F781F891FAB
S1130F509A1FA11D680F791F8A1F911DA11D6A0F79
S1130F60711D811D911DA11D20D009F468943F912C
S1130F702AE0269F11243019305D3193DEF6CF012B
S1130F800895462F4770405D4193B3E00FD0C9F7F1
S1130F90F6CF462F4F70405D4A3318F0495D31FD5E
S1130FA04052419302D0A9F7EACFB4E0A6959795B1
S1130FB0879577956795BA95C9F700976105710587
S1130FC008959B01AC010A2E0694579547953795D1
S1130FD02795BA95C9F7620F731F841F951FA01D2B
S1130FE008952F923F924F925F926F927F928F92C9
S1130FF09F92AF92BF92CF92DF92EF92FF920F93A4
S11310001F93CF93DF93CDB7DEB7CA1BDB0B0FB6AD
S1131010F894DEBF0FBECDBF09942A88398848886A
S11310205F846E847D848C849B84AA84B984C88400
S1131030DF80EE80FD800C811B81AA81B981CE0FF7
S1131040D11D0FB6F894DEBF0FBECDBFED010895DC
S1071050F894FFCF3E
S11310540D0A0000555341525420494E495420442A
S11310644F4E450024003B0043414E20696E697491
S1131074207375636365730043414E20696E69741C
S1131084206661696C6564005374617274696E6787
S1131094206D61696E206C6F6F702E2E2E00494492
S11310A43A20002530325875002C200044617461C4
S11310B46C656E6774683A20002C20446174613A4C
S10510C4200006
S9030000FC
