:100000000C9434000C9449000C9449000C94490061
:100010000C9449000C9449000C9449000C9449003C
:100020000C9449000C9449000C9449000C9449002C
:100030000C9449000C9449000C9449000C9449001C
:100040000C9449000C9449000C9449000C9449000C
:100050000C9449000C9449000C9449000C944900FC
:100060000C9449000C94490011241FBECFEFD8E036
:10007000DEBFCDBF11E0A0E0B1E0ECE6F2E002C0EF
:1000800005900D92A432B107D9F70E9404010C9497
:1000900034010C9400000E94750008958EBD0DB4CB
:1000A00007FEFDCF8EB50895CF93DF93D82FC62FCF
:1000B0002A9882E00E944E008D2F0E944E008C2FC5
:1000C0000E944E002A9ADF91CF910895CF93C82FB6
:1000D0002A9883E00E944E008C2F0E944E008FEFE2
:1000E0000E944E002A9ACF910895CF93C82F2A9A42
:1000F000229A2D982B982C98259A239A24985298D6
:100100005A9A81E58CBD1DBC2A9880EC0E944E0055
:100110002A9A83E08A95F1F700002A9882E00E94EB
:100120004E0088E20E944E0082E00E944E0080E96C
:100130000E944E008C2F0E944E0083E00E944E00D1
:100140002A9A8AE20E946600C81719F0289A80E06D
:1001500015C060E08CE00E94540060E08DE00E94D9
:10016000540060E680E60E94540060E680E70E944A
:10017000540060E08FE00E94540081E0CF91089528
:10018000DC01E0ECF0E0908195FFFDCF8C91809355
:10019000C6000895CF93DF93EC018881882339F05E
:1001A000CE010E94C000219688818111F9CFDF9194
:1001B000CF91089580E091E00E94CA0008950E94C6
:1001C000CA000E94DA0008959B01AC0160E874E85F
:1001D0008EE190E00E941201215031093093C50058
:1001E0002093C40082E08093C000E1ECF0E08081C5
:1001F00088618083E2ECF0E080818660808384E027
:1002000091E00E94DF00089560E076E980E090E0F0
:100210000E94E40081E00E944B008AE191E00E948C
:10022000DF00FBCFA1E21A2EAA1BBB1BFD010DC0F4
:10023000AA1FBB1FEE1FFF1FA217B307E407F50796
:1002400020F0A21BB30BE40BF50B661F771F881F72
:10025000991F1A9469F760957095809590959B0108
:0C026000AC01BD01CF010895F894FFCF60
:10026C000D0A0000555341525420494E4954204424
:10027C004F4E4500240020003B00746573743132EE
:04028C0033343500D2
:00000001FF
