:100000000C9434000C9449000C9449000C94490061
:100010000C9449000C9449000C9449000C9449003C
:100020000C9449000C9449000C9449000C9449002C
:100030000C9449000C9449000C9449000C9449001C
:100040000C9449000C9449000C9449000C9449000C
:100050000C9449000C9449000C9449000C944900FC
:100060000C9449000C94490011241FBECFEFD8E036
:10007000DEBFCDBF11E0A0E0B1E0EAE6F4E002C0EF
:1000800005900D92AE35B107D9F70E94AD010C94E1
:1000900033020C9400000E94950008958EBD0DB4AB
:1000A00007FEFDCF8EB50895CF93DF93D82FC62FCF
:1000B0002A9882E00E944E008D2F0E944E008C2FC5
:1000C0000E944E002A9ADF91CF910895CF93C82FB6
:1000D0002A9883E00E944E008C2F0E944E008FEFE2
:1000E0000E944E002A9ACF9108951F93CF93DF93D9
:1000F000182FD62FC42F2A9885E00E944E00812FFA
:100100000E944E008D2F0E944E008C2F0E944E00A8
:100110002A9ADF91CF911F9108952A980E944E004C
:100120008FEF0E944E002A9A0895CF93C82F2A9AE3
:10013000229A2F982D982E982C98279A259A2698AF
:10014000249A52985A9A81E58CBD1DBC2A9880EC5D
:100150000E944E002A9A83E08A95F1F700002A98BF
:1001600082E00E944E0088E20E944E0082E00E94DF
:100170004E0080E90E944E008C2F0E944E0083E0CA
:100180000E944E002A9A8AE20E946600C81719F05F
:10019000289A80E015C060E08CE00E94540060E086
:1001A0008DE00E94540060E680E60E94540060E604
:1001B00080E70E94540060E08FE00E94540081E0DC
:1001C000CF91089589B182FB882780F991E0892732
:1001D0000895CF92DF92EF92FF920F931F93CF93E8
:1001E000DF931F92CDB7DEB76C0180EB0E948D00CC
:1001F00089839981892F807496FD06C099819923FE
:100200000CF05DC084E901C080E92A980E944E008C
:100210008FEF0E944E0028E0829FC0011124F6015A
:10022000918380838FEF0E944E00282F2295269580
:100230002770F60180819181822B918380838FEFDB
:100240000E944E008FEF0E944E008FEF0E944E00E2
:100250008F70282F220FF6019281917E922B92832C
:10026000298123FB222720F920FB90F99283882300
:10027000A1F086010D5F1F4F8150E82EF12CF4E0B4
:10028000EF0EF11CEC0CFD1C8FEF0E944E00F801EC
:1002900081938F01EE15FF05B9F72A9A898186FFB0
:1002A00006C040E061E08CE20E94750005C040E0BD
:1002B00062E08CE20E947500898187708F5F0F90E9
:1002C000DF91CF911F910F91FF90EF90DF90CF9032
:1002D0000895DC01E0ECF0E0908195FFFDCF8C917A
:1002E0008093C6000895CF93DF93EC018881882323
:1002F00039F0CE010E946901219688818111F9CFE0
:10030000DF91CF91089580E091E00E9473010895FC
:100310000E9473010E94830108959B01AC0160E873
:1003200074E88EE190E00E9411022150310930936F
:10033000C5002093C40082E08093C000E1ECF0E0AF
:10034000808188618083E2ECF0E080818660808338
:1003500084E091E00E9488010895CF93DF93CDB7A8
:10036000DEB72B970FB6F894DEBF0FBECDBF60E0AF
:1003700076E980E090E00E948D0181E00E944B00D0
:10038000882329F088E191E00E94880104C088E276
:1003900091E00E94880188E391E00E9488010E9418
:1003A000E2008823E1F3CE0101960E94E900882350
:1003B000B1F38EE491E00E94880189819A810E94C4
:1003C000880183E591E00E94880186E591E00E9422
:1003D00088018B8186958F7090E00E9488018B81C7
:1003E00086958F70C9F07E0184E0E80EF11C00E074
:1003F00010E0F70181917F0190E00E94880184E57F
:1004000091E00E9488010F5F1F4F8B8186958F704E
:1004100090E0081719076CF385E591E00E948801C8
:10042000BECFA1E21A2EAA1BBB1BFD010DC0AA1F45
:10043000BB1FEE1FFF1FA217B307E407F50720F04D
:10044000A21BB30BE40BF50B661F771F881F991FC8
:100450001A9469F760957095809590959B01AC0111
:0A046000BD01CF010895F894FFCF0D
:10046A000D0A0000555341525420494E4954204424
:10047A004F4E450024003B0043414E20696E69748B
:10048A00207375636365730043414E20696E697416
:10049A00206661696C6564005374617274696E6781
:1004AA00206D61696E206C6F6F702E2E2E0049448C
:0E04BA003A20002C2000446174613A200000BA
:00000001FF
